:020000040800F2
:1000000078050020D90000082D1700089715000872
:1000100000000000000000000000000000000000E0
:10002000000000000000000000000000771700083A
:100030000000000000000000751700087917000894
:10004000EB000008EB000008EB000008EB000008E4
:10005000EB000008EB000008EB000008EB000008D4
:1000600000000000EB000008EB000008EB000008B7
:10007000EB000008EB000008000000004D1800082D
:100080000000000000000000000000000000000070
:10009000EB00000800000000EB000008EB00000887
:1000A00000000000EB00000800000000000000005D
:1000B000E91C0008EB000008000000000000000040
:1000C0000448854600F090F800480047311D0008BC
:1000D000C046C046780500200448804704480047D1
:1000E000FEE7FEE7FEE7FEE7FEE7FEE7F91700089A
:1000F000C100000830B50B46014600202022012433
:1001000009E00D46D5409D4205D31D469540491B4B
:100110002546954040191546521E002DF1DC30BD94
:10012000F0B51FB40646002082B005464024019178
:1001300000901BE0019922460F46304600F042F83D
:10014000049A059B801A994110D3104619462246FD
:1001500000F028F8361A8F4101972246012000212D
:10016000009F00F01FF838184D4100902046641E93
:100170000028DFDC019B00982946324607B0F0BD1D
:10018000D2B201E00270401C491EFBD2704700222F
:10019000F6E710B513460A4604461946FFF7F0FF86
:1001A000204610BD10B5202A04DB0146203A9140BC
:1001B000002010BD914020239C1A0346E3401943C0
:1001C000904010BD10B5202A04DB0846203AD040EC
:1001D000002110BD0B46D340D0402024A21A9140EC
:1001E0000843194610BD0000064C0125064E05E0E7
:1001F000E36807CC2B430C3C98471034B442F7D348
:10020000FFF762FF701D0008901D000838B5044616
:10021000064805490068FFF76DFF604300E0401E97
:1002200000900028FBD138BD40420F000C00002098
:10023000F8B506460D464036317C01290DD0012126
:10024000317401688A68520709D5416D2022114333
:100250004165002030740120F8BD0220F8BD174B25
:100260006A68D80547109A42154C8A6A2B6812D0E2
:100270005B035B0B1A438A622968490305D5A168B1
:100280000143A1600A20FFF7C1FF2868800312D54F
:10029000A06838430EE05B035B0B9A438A622968CF
:1002A000490302D5A1688143A1602868800302D573
:1002B000A068B843A06000203074F8BD01100000B1
:1002C0000027014070B5040006D0606D2646002569
:1002D0004036002802D006E0012070BDA5653574C7
:1002E000204600F0D3F8606DC00603D4216888680A
:1002F000400705D5606D1021084360653574EBE754
:10030000606DFF22013290430222104360658868CD
:100310008207920F5B48012A02D10A68D2072BD1CB
:10032000032362689B079A4205D05B429A4202D03F
:100330005B009A4209D10A69920092080A61216819
:100340000A6963681A430A610CE00A69920092081C
:100350000A6181680F22920491438160816862681A
:10036000114381602168CA6818239A43CA602168D2
:10037000CA68A3681A43CA60816801225206914381
:1003800081608168A28E5206114381602068816875
:10039000C90004D4816801221207114381602068DA
:1003A000C168394A1140C1602069E168022825D03E
:1003B00000200143204620300278037B52035B007B
:1003C0001A431143226B1143A26992031143E2695C
:1003D000D20311432268D3681943D160616A0A4687
:1003E000FF3AC23A05D0A26A11432268D368194382
:1003F000D16042780121012A02D00BE00420D8E725
:100400000078002823D0606D202210436065A06D25
:100410000843A065E06B012820681FD00169C90767
:1004200003D0016949084900016120684169C90890
:10043000C900416120684169A26B11434161A56512
:10044000606D80088000401C6065002070BD2068E1
:10045000C26801231B041A43C260DBE70269FF2361
:100460009B009A43026120680269236CA66C1A43C0
:10047000636C33431A430261206802690A430261D4
:10048000D3E70000002701401902FEFF70B586B0D7
:10049000044614216846FFF77AFE14492068884212
:1004A00022D11348416B421511434163C16A0122B5
:1004B0001143C162C16A11400591C16A02242143FE
:1004C000C162C06A032520400590802000266A464C
:1004D00061C205206946000700F034F86A4670C220
:1004E0006946044800F02EF806B070BD00240140B3
:1004F000001002400004005070B500240146203175
:100500004A79022A03D00421C163012418E0026859
:1005100013680E25AB431360026813685B085B0029
:100520001360436C1C221340012215469D40036C4E
:100530005D604A7100220A71816B002900D08847F2
:10054000204670BDFCB5002301249DE027462A46C5
:100550009F403A406FD04D68012D05D0022D03D049
:10056000112D01D0122D16D185680326AC465D00F1
:10057000AE46AE406546B543AC46CE687546AE4025
:1005800065462E43866046680D79BE43ED06ED0F45
:100590009D4035434560C6685F000325BD40AE46BB
:1005A000AE4335468E68BE402E43C6604E68022E6E
:1005B00001D0122E14D1DE08B60036180196366A24
:1005C0005D07B446EE0E0F25B54000966646AE4375
:1005D000B4460D69009EB54066462E43019D2E62CD
:1005E00006687546AE430D79AD07AD0FBD40354386
:1005F00005604D68ED0046D5264D6E6B26436E6353
:100600009E08254DB6007519AC46AD689E07360F9D
:100610000F27B740BD4305273F07B84201D1002748
:1006200010E01E4FB84201D101270BE01C4FB84229
:1006300002D1022706E026E01A4FB84201D1052771
:1006400000E00627B7402F436546AF60164D2E6881
:100650004F689643FF0300D516432E606E684F68BF
:100660009643BF0300D516436E60AE684F6896434D
:10067000FF0200D51643AE60EE684F689643BF0296
:1006800000D51643EE605B1C0A681546DA4000D0C0
:100690005CE7FCBD00100240000001400004005077
:1006A00000080050001C005000040140002A01D046
:1006B000816170478162704701488068704700001F
:1006C0000000002070B5024640325378202B1CD128
:1006D0001378012B19D0012313702424547004685B
:1006E00025689D432560046825681E03B543256081
:1006F000046825680D43256000680168194301609E
:10070000202050700020107070BD022070BD70B5A8
:10071000024640325378202B1BD11378012B18D07E
:10072000012414702423537003681D68A5431D60C1
:1007300005682B680F263602B34309021943296066
:100740000068016821430160202050700020107073
:1007500070BD022070BD000070B5040006D02546B3
:10076000403568780026002802D005E0012070BDE1
:100770002E70204600F04AF8242068702068016836
:100780004908490001600F21606809068843216813
:10079000086121688A680120C00382438A60E16899
:1007A0000129A16808D02122920211432268916098
:1007B000E168022902D005E00143F7E70121226840
:1007C000C902516021684A680F4B1A434A60216888
:1007D000CA688243CA60616920690843A169090245
:1007E00008432168C860216AE069084321680860FD
:1007F000206801680122114301606664202068704E
:100800002663AE70002070BD0080000210B586B077
:10081000044614216846FFF7BAFC10492068884254
:100820001AD10F4CE16A01200143E162E16A0290B2
:1008300001400591032149020091122101910321F8
:1008400004900391052069460007FFF77BFEA06B2B
:10085000012149050843A06306B010BD00540040C3
:100860000010024002488168027889188160704750
:100870000000002010B50848002401684022114300
:100880000160204600F00AF8002801D0012401E0B0
:1008900000F026F8204610BD0020024070B5044646
:1008A0000D4D7D202978C000FFF724FC01460B4840
:1008B0000068FFF71FFC00F0FDFB002809D1042CA5
:1008C00007D200222146401E00F020F800206C6074
:1008D00070BD012070BD0000000000200C00002051
:1008E0000448416B012211434163816B02041143AF
:1008F0008163704700100240C106C90E0120884084
:10090000014908607047000000E100E010B500F008
:100910000FFF10BDF8B5044600784F4D800672D524
:100920004D4E0027403EB06BC00004D4B06BA9050B
:100930000843B063012749480168C90511D401681B
:10094000821511430160FFF7B7FE009005E0FFF745
:10095000B3FE0099401A642837D840480068C005A3
:10096000F5D532680321090560680A4001409142CB
:1009700008D08103890F032904D13168890301D587
:100980000120F8BD2A69032109040A4022D0084049
:1009900090421FD0207880061CD528692A69884398
:1009A0000121C9040A432A612A698A432A6128610C
:1009B000C0050FD5FFF780FE009008E0FFF77CFE32
:1009C0000099411A2648814201D90320F8BD2869BF
:1009D0008005F3D561688803800F032805D132684C
:1009E0000005824301400A4332602869032261689E
:1009F0001204114008432861002F04D0B16B01207C
:100A000000078143B1632078800705D5E8680C2191
:100A10008843A1680843E8602078400706D5E86865
:100A2000032189028843E1680843E86020780007D1
:100A300006D5E86803210903884321690843E86073
:100A40002078000606D5E868032189048843616997
:100A50000843E8600020F8BD4010024000700040EC
:100A600088130000F8B50E4605007DD05348006895
:100A7000C007C00FB0420AD2504801684908490077
:100A8000314301600068C007C00FB04271D12878BF
:100A90004B4C800705D5E068F0218843A9680843DE
:100AA000E0602878C00752D06868022817D0032871
:100AB00018D02168012818D08905002959DAE16881
:100AC000890889000143E160FFF7F6FD6968074680
:100AD000022912D003291CD0012926D033E0216835
:100AE0008903EAE721688901E7E74907E5E7FFF7B6
:100AF000E3FDC11B3348814223D8E0680007800F23
:100B00000228F4D123E0FFF7D7FDC11B2D48814215
:100B100017D8E0680007800F0328F4D117E0FFF72B
:100B2000CBFDC11B274881420BD8E0680007800F2E
:100B30000128F4D10BE0FFF7BFFDC11B2148814222
:100B400001D90320F8BDE0680007800FF3D11B48EE
:100B50000168C907C90FB1420DD9016849084900A8
:100B600031430160006800E003E0C007C00FB042FD
:100B700001D00120F8BD2878400706D5E06807219C
:100B800009028843E9680843E0602878000707D530
:100B9000E0680721C90288432969C9000843E06069
:100BA00000F036F8E168084A0906090F515CC840B0
:100BB000064908600020FFF771FEF8BD00200240E2
:100BC00000100240881300004E1D00080C00002099
:100BD000044805490068C968044A4905490F515C41
:100BE000C84070470C00002000100240671D00083C
:100BF000044805490068C968044A8904490F515CE2
:100C0000C84070470C00002000100240671D00081B
:100C100010B5184AD1680C20084004280BD00828C9
:100C200010D00C2810D050680004410F0120C003E0
:100C3000491C884010BD1068C00601D50E4810BD83
:100C40000E4810BD0E4810BD88020E4B000F185CF8
:100C50000902D368890F491CDB0301D5084A05E066
:100C60001268D20601D5044A00E0044A5043FFF757
:100C700041FA10BD0010024000093D000024F400BC
:100C800000127A005E1D0008FEB505007ED0FE4C05
:100C9000E7680C20E6680740012000040640287839
:100CA000C00747D0082F05D00C2F0AD1012000041F
:100CB000864206D1206880033CD568680028E5D0CC
:100CC00038E0012069680004814203D121680143B2
:100CD000216011E0052301221B049204994221683E
:100CE00002D111432160F1E7814321602168014075
:100CF0000091206890432060686800280DD0FFF7BD
:100D0000DBFC009005E0FFF7D7FC0099401A64284F
:100D10007ED820688003F6D50CE0FFF7CDFC00906C
:100D200005E0FFF7C9FC0099401A6428F0D8206854
:100D30008003F6D4287880075CD5E868810604D55E
:100D4000226820210A43226088430923042F0DD002
:100D50000C2F01D1002E09D000283BD021689943E7
:100D600001432160FFF7A8FC064627E021684907F8
:100D700001D500288AD061681F22120291432A6996
:100D80001202114361602168994300E08EE1014342
:100D90002160FFF73DFFE16809060A0FBB49895C46
:100DA000C840BB4908600020FFF778FD002873D1D8
:100DB00020E0FFF781FC801B0228A9D820684007AB
:100DC000F7D560681F210902884329690902084391
:100DD00060600FE02068400840002060FFF76CFC76
:100DE000064604E0FFF768FC801B022890D82068C4
:100DF0004007F7D42878C00660D5002F0DD0A86929
:100E000000284AD02068FF2101310843206000E01B
:100E1000C4E0FFF751FC06462CE02068800502D5AF
:100E2000A8690028A6D06068072149038843296A79
:100E3000084360606068297F0002000A09060843D1
:100E40006060286A410B0120C003491C8840E168AA
:100E500009060A0F8D49895CC8408D490860002049
:100E6000FFF71CFD002817D128E0FFF725FC801BA9
:100E70000228A2D820688005F7D5606807214903B9
:100E80008843296A084360606068297F0002000A7D
:100E900009060843606011E0E1E02168FF200130AD
:100EA00081432160FFF708FC064604E0FFF704FCDD
:100EB000801B022872D820688005F7D42878754EE8
:100EC000000724D568690028306910D00121084343
:100ED0003061FFF7F1FB009005E0FFF7EDFB0099B3
:100EE000401A02285AD830698007F6D50FE040082A
:100EF00040003061FFF7E0FB009005E0FFF7DCFB0E
:100F00000099401A022849D830698007F6D4287819
:100F1000400765D500200290A06BC00006D4A06BEE
:100F2000012109070843A063012002905A48016883
:100F3000C90511D40168821511430160FFF7BCFB9C
:100F4000009005E0FFF7B8FB0099401A642825D807
:100F500051480068C005F5D5FF20AA6801308242DB
:100F600003D131690143316111E001218902002A75
:100F700007D005231B029A4203D132690A4332612A
:100F8000EFE7326982433261306988433061A86893
:100F900000280FD0FFF790FB009007E05EE0FFF71E
:100FA0008BFB0099411A3D48814257D83069800532
:100FB000F5D50DE0FFF780FB009006E0FFF77CFB26
:100FC0000099411A3548814248D830698005F5D4E6
:100FD0000298002804D0A16B012000078143A1637F
:100FE000686A002864D00C2F3ED0012636060228FD
:100FF000206805D0B0432060FFF75EFB05462FE078
:10100000B0432060FFF758FB074604E0FFF754FBAE
:10101000C01B022822D820688001F7D4E96AA86A98
:10102000E2680843296BFD231B049A4311430843DC
:10103000E060206830432060FFF73EFB054604E097
:10104000FFF73AFB401B022808D820688001F7D53B
:101050002EE0FFF731FB401B022801D90320FEBD23
:1010600020688001F5D423E00128F8D0E068012150
:101070000904AA6A0140914218D10F218904EA6A41
:101080000140914212D10BE0001002404E1D0008B9
:101090000C00002040100240007000408813000047
:1010A000032189050840296B884201D00120FEBD3B
:1010B0000020FEBD094910B5401E884201D901201B
:1010C00010BD074C60610321081F00F031FB0020B8
:1010D000A06107202061002010BD0000FFFFFF007D
:1010E00000E000E0F0B502462032137E012B15D05F
:1010F000012717760223537605686C68AB68702663
:10110000B4430E68496826438024A34319436E60A4
:1011100000688160577600201076F0BD0220F0BD97
:1011200070B5040005D025462035687E002802D021
:1011300006E0012070BD00202876204600F00AF865
:1011400002206876211D206800F088FB0120687667
:10115000002070BD10B500680121890788420CD1BC
:101160000648816B012211438163002211460F2042
:10117000FFF7CCFB0F20FFF7BFFB10BD00100240B4
:10118000F8B5054604462035287E012817D00126EB
:101190002E7602206876226890687727FF23B8436E
:1011A0001B02984390600A68502A31D00EDC202A36
:1011B0004BD006DC002A48D0102A3AD145E0022064
:1011C000F8BD302A41D0402A33D136E0602A27D0FA
:1011D000702A12D001200003121A2AD0824228D18C
:1011E000CB684A688968206800F064FB20688168E1
:1011F00001229203114381601BE0CB684A68896831
:10120000206800F057FB216888683843886010E048
:10121000CA684968206800F060FB5021206806E039
:10122000CA684968206800F069FB6021206800F006
:101230004CFB6E7600202876F8BDCA6849682068A5
:1012400000F04BFB40212068F1E711462068EEE7F3
:10125000704770B50446006801690025C9438907D5
:10126000002915DBC168C943890711D4E91E016152
:1012700001202076206880698007204602D0FFF791
:10128000E7FF04E000F078F8204600F076F82576D5
:1012900020680169C943490717D4C168C943490790
:1012A00013D40421C943016102202076206880699B
:1012B0008005800F204602D0FFF7CAFF04E000F04F
:1012C0005BF8204600F059F8257620680169C9438B
:1012D000090716D4C168C943090712D40821C943B4
:1012E0000161042020762068C0698007204602D072
:1012F000FFF7AEFF04E000F03FF8204600F03DF8B5
:10130000257620680169C943C90617D4C168C94355
:10131000C90613D41021C943016108202076206832
:10132000C0698005800F204602D0FFF791FF04E0DE
:1013300000F022F8204600F020F8257620680169A8
:10134000C943C90708D1C168C943C90704D1891E67
:101350000161204600F012F820680169C94349067E
:1013600009D4C168C943490605D44021C943016174
:10137000204600F004F870BD704770477047704712
:1013800070477047F8B502680446D06911689368E1
:1013900005072D0F5BD0DD07ED0FFF2621360E4030
:1013A0002E4367D0C60706D0CE0504D501261662A7
:1013B000E26F3243E267870702220426002F06DA33
:1013C000DF0704D027683A62E76F3743E7674707CC
:1013D00006D5DB0704D023681E62E36F1343E3677F
:1013E000020709D520220A402A4305D02368082293
:1013F0001A62E36F1343E367E26F002A2FD080067F
:1014000006D5880604D5216E002901D020468847DC
:10141000E06F21688968490601D4000724D5204679
:1014200000F01EFB20688168490619D581684022BA
:1014300091438160E06E002812D020498163E06E04
:10144000FFF75AF800280AD0E06E816B06E08506A7
:1014500010D58D060ED5216E1CE020468847F8BDBC
:101460002046FFF78EFFF8BD2046FFF78AFF0020D9
:10147000E067F8BDC50208D55B0206D5012000056E
:1014800010622046FFF77CFFF8BD030605D50B066A
:1014900003D5616E0029E0D1F8BD4006FCD54806B1
:1014A000FAD51368204640218B43136020216167E1
:1014B0000021616600F06EF8F8BD00004D1A0008CA
:1014C00010B5040003D0606F002802D007E00120AF
:1014D00010BD002170200155204600F027F824207F
:1014E000606720680168490849000160204600F0F3
:1014F000C7FA0128ECD0606A002802D0204600F02C
:1015000010FA206841680922D202914341602068A4
:1015100081682A2291438160206801680122114379
:101520000160204600F062FA10BD000010B586B0E0
:10153000044614216846FEF72AFE134920688842B3
:1015400020D11248816B0122520411438163C26A87
:1015500002210A43C262C06A019108400590C0207E
:1015600000900021032002910491039069460848ED
:10157000FEF7E8FF002211461C20FFF7C7F91C20E8
:10158000FFF7BAF906B010BD004400400010024059
:10159000000400507047FEE71CB500211748009179
:1015A000154A01910260C163120581604260816346
:1015B000012202610246C16020321170FF23517086
:1015C000C23343628162117301638161042241630A
:1015D0004261C161FEF776FE0948009001200003D8
:1015E000019069460548FEF723FE064800906946CB
:1015F0000248FEF71DFE1CBD002401401000002023
:101600008000001C0002002430B587B01421684619
:10161000FEF7BDFD1448C26A04210A43C262C26AD1
:101620000A400592C16A01242143C162C16A214076
:101630000591C26A02210A43C262C06A05250840B8
:101640002D070590002208212846FFF72FF80021DA
:101650000820029103910090019469462846FEF704
:1016600071FF07B030BD00000010024010B50D48FA
:101670000B4901600C4941600021816001614161B9
:1016800081610122C161C2600162FFF765F800213A
:101690000448FFF717F800210248FFF738F810BD9B
:1016A000005400406C000020BB7C700010B586B078
:1016B0000024009401210F4801940294039404949F
:1016C0008907059412C0046084600B49C4604160BE
:1016D0000838FFF725FD0120000300906946054802
:1016E000FFF74EFD049404A902480594FFF7FAFCA5
:1016F00006B010BDB8000020FFFF000010B50A487A
:10170000084901604B21C901416000218160C1602D
:1017100001618161C1610C22016242614162FFF796
:10172000CFFE10BD00440040F400002070470000D0
:101730008307FF22DB0E9A408907090E9940002893
:101740000BDA0007000F0838830808489B001818B8
:10175000C36993430B43C3617047830804489B00EC
:101760001B181868904308431860704700ED00E0AC
:1017700000E400E07047704710B5FFF773F810BD44
:1017800010B598B034216846FEF701FD14210DA86C
:10179000FEF7FDFC182112A8FEF7F9FC15480168B8
:1017A0000322D2029143C214891801600121022050
:1017B0000391102100900491099040040B900001C6
:1017C00000240C900A946846FFF75EFA0F200D90F3
:1017D00003200E900F941094012111940DA8FFF78F
:1017E00041F90A2012901494169412A8FFF792F867
:1017F00018B010BD007000401048016882151143F8
:101800000160C1680E4A1140C16001680D4A114073
:1018100001608168490849008160016801229204E1
:1018200091430160C168FD2212049143C16000210F
:1018300001610549C0038860704700000010024044
:101840000C40FF88F6FFF6FE00ED00E010B5024800
:10185000FFF7FFFC10BD0000B800002070B5026863
:1018600001239B07114C124D984203D0A04201D096
:10187000A84203D17026B2434E683243984203D047
:10188000A04201D0A84204D103231B029A43CB6893
:101890001A4380239A430B691A4302608A68C26222
:1018A000096881620121416170BD000000080140AA
:1018B0000014014030B58468FF252D021B0213433C
:1018C000AC430B432343836030BD826870239A434B
:1018D0000A4307210A438260704730B5036A046AED
:1018E0006408640004628469F025AC431201224359
:1018F0000A24A3430B438261036230BD30B5036AFF
:101900001024A34303628469036A0F252D03120385
:10191000AC432243A024A34309011943826101621D
:1019200030BD10B5818CC90707D001684A68012312
:101930005B049A43836A1A434A60818C890707D5FE
:1019400001684A6801231B049A43C36A1A434A6028
:10195000818C490707D501684A6801239B049A4393
:10196000036B1A434A60818C090707D501684A68EE
:101970000123DB039A43436B1A434A60818CC906F7
:1019800007D50268916801231B039943836B1943B0
:101990009160818C890607D501688A6801235B0301
:1019A0009A43C36B1A438A60818C490612D5036837
:1019B0005A6801210905046C8A4322435A60026C6B
:1019C0008A4207D10268516803235B059943436C3F
:1019D00019435160818C090607D501684A680123C3
:1019E000DB04806C9A4302434A6010BDF8B50026C0
:1019F0000446C667FEF760FE054620680068124F81
:101A0000000709D501212B460022490520460097F1
:101A100000F038F900280DD12068006840070BD588
:101A200001212B46002289052046009700F02AF963
:101A3000002801D00320F8BD20206067A067603433
:101A400026740020F8BD0000FFFFFF0110B5806A7A
:101A50000022014640314A834A82FFF792FC10BDC2
:101A600001680A68FF2321339A430A6001688A6883
:101A7000520852008A602021816700210166704768
:101A8000F8B504462669A268E76932436669102002
:101A900000253E432368324370491E68704F3E4024
:101AA00016431E602268536803263603B343E66874
:101AB000334353602368A2698B4201D0266A3243C4
:101AC0009E680B273F02BE4316439E60654E236807
:101AD000654AB3420AD1D2680C26324026D0042A85
:101AE00028D0082A24D00C2A10D10EE08B420DD128
:101AF000D66803229202164018D001229202B61A2A
:101B000018D0B61A14D0964200D10820564A0126A1
:101B1000403A564FF6038B4236D100280CD00228AB
:101B20000DD0042812D008281FD11CE00020EDE7BA
:101B30000220EBE70420E9E7FFF74AF808E0106825
:101B4000C00601D5384605E0494803E0FFF760F8D4
:101B5000002873D0626851005118814205D81103E2
:101B6000814202D303E03046F4E7012566E0010E2E
:101B700006025008002330185941FEF7D1FA03211C
:101B80000902411A3B4A55E0E169B14232D10300F2
:101B900000F0B2F809070A0D06250606062B060016
:101BA000E3E7FFF715F81CE0FFF722F819E01068EB
:101BB0006168C00602D548082F4A01E02F4A48084C
:101BC0008018FEF797FA80B201462D4A10399142EB
:101BD000CBD8511C01400007400F08432CE0FFF711
:101BE00017F8616840004A08EAE76168012248087E
:101BF0001204E5E7030000F07FF809070A0D062646
:101C00000606062C0600B0E7FEF7E2FF1DE0FEF731
:101C1000EFFF1AE010686168C00602D54808C019D5
:101C200002E013484A081018FEF764FA80B2014631
:101C3000134A1039914298D82168C8600020206664
:101C400060662846F8BDFEF7E3FF61684A08801821
:101C5000EAE7616848088019E6E7000000480040AC
:101C6000F369FFEF004400404010024000093D00CE
:101C70000024F400FFFC0F0000127A000048E80185
:101C8000EFFF0000FFB581B017460E4604460A9DDF
:101C900009E0681C07D0FEF70FFD0499401AA8421E
:101CA0000CD8002D0AD02068C1693046884318D06E
:101CB0000020B842EDD0002005B0F0BD20680168DA
:101CC000FF22A132914301602068816849084900E0
:101CD000816020206067A0670020603420740320AA
:101CE000EAE70120E5E7000010B50248FFF74AFBEC
:101CF00010BD0000F400002030B47446641E257846
:101D0000641CAB4200D21D46635D5B00E31830BC2F
:101D1000184702E008C8121F08C1002AFAD170470C
:101D20007047002001E001C1121F002AFBD170475B
:101D3000FEF7A0FDFFF724FDFFF766FCFFF7DEFCD2
:101D4000FFF7B4FCFFF728FCFFF790FCFEE700006C
:101D50000000000000000102030406070809030454
:101D600006080C10182030000000000102030400D7
:101D7000901D00080000002010000000121D000847
:101D8000A01D00081000002068050000221D0008AA
:101D9000010000000400000000000000000020001E
:04000005080000C12E
:00000001FF
